:03000000020CEF00
:0C0CEF00787FE4F6D8FD758120020C7AB5
:100C7A00120D1E120CC8750B05750C25750D0B751A
:100C8A000E217B0A7D30E4FF1209E812080080FB7E
:060ADA00D2B77F027E008E
:100AE000D3EF9400EE940040177DFAAC051DEC7036
:100AF000FA7DF7AC051DEC70FAEF1F70E31E80E085
:010B000022D2
:0C0CFB008FA0C2B6D2B5120ADAC2B7222E
:0C0D07008FA0C2B6C2B5120ADAC2B72231
:100CC8007F02120D077F38120D077F0E120D077F66
:040CD80001020D0701
:100CDC00120C9AFF600C120CFB740129F9E43AFA1D
:030CEC0080EE2275
:03000300020A6D81
:100A6D00C0E0C0F0C083C082C0D075D000C000C04F
:100A7D0001C002C003C004C005C006C007051C129A
:100A8D000D27D007D006D005D004D003D002D00159
:0D0A9D00D000D0D0D082D083D0F0D0E03295
:030013000209607F
:10096000C0E0C0F0C083C082C0D075D000C000C05D
:1009700001C002C003C004C005C006C007E51C6476
:10098000017005120B4F8045E51C64027005120BC7
:1009900075803AE51C64037005120C33802FE51C4A
:1009A00064047005120B9B8024E51C64057005121D
:1009B0000BC18019E51C64067005120BE7800EE57B
:1009C0001C64077005120C0D8003751C00D007D045
:1009D00006D005D004D003D002D001D000D0D0D0B2
:0809E00082D083D0F0D0E03298
:090D1E0043A88043A801D28822F9
:090D270043A88043A804C28A22FB
:100B4F00E4F51C7D027FD0120A2B8F1DD3EF941674
:100B5F00748094804005E4F51D8002051DAB1D7D5A
:060B6F00027FD0020AAA79
:100B7500E4F51C7D017FD0120A2B8F1DD3EF943A2B
:100B8500748094804005E4F51D8002051DAB1D7D34
:060B9500017FD0020AAA54
:100C3300E4F51CFD7FD0120A2B8F1DD3EF943A7479
:100C43008094804005E4F51D8002051DAB1DE4FD85
:050C53007FD0020AAA97
:100B9B00E4F51C7D037FD0120A2B8F1DD3EF940637
:100BAB00748094804005751D018002051DAB1D7D71
:060BBB00037FD0020AAA2C
:100BC100E4F51C7D047FD0120A2B8F1DD3EF941DF9
:100BD100748094804005E4F51D8002051DAB1D7DE8
:060BE100047FD0020AAA05
:100BE700E4F51C7D057FD0120A2B8F1DD3EF940BE4
:100BF700748094804005751D018002051DAB1D7D25
:060C0700057FD0020AAADD
:100C0D00E4F51C7D067FD0120A2B8F1DD3EF946265
:100C1D00748094804005E4F51D8002051DAB1D7D9B
:060C2D00067FD0020AAAB6
:0B0D1300D291D290D291D290C29022D7
:090D3000C291C290D291D290222E
:100C58007E07EE3395E0C3648094804014C291A867
:100C680006EF088002C313D8FC139290D2911E801D
:010C7800E19A
:010C79002258
:100B0100E4FF7E07EE3395E0C3648094804017D202
:100B11009130900DA8067401088002C333D8FC42BD
:060B210007C2911E80DEF8
:010B270022AB
:100CB300C291D290D29100000000209004C291C34F
:050CC30022C291D322C2
:070D3900C291D290D2912279
:060AAA008F128D138B1466
:100AB000120D13AF12120C58120CB3920120011731
:100AC000AF13120C58120CB3920120010AAF14128A
:0A0AD0000C58120CB39201020D3015
:040A2B008F128D1386
:100A2F00120D13AF12120C58120CB39201200128A1
:100A3F00AF13120C58120CB3920120011B120D139D
:100A4F00E5124401FF120C58120CB3920120010859
:0D0A5F00120B018F14120D39120D30AF145F
:010A6C002267
:100B28004461792D0053756E004D6F6E00547573D6
:100B38000057656400546875004672690053617413
:070B480000446174652D00FB
:1009E8008D098B0AAB07E4FD7FD0120AAAAB097DFB
:1009F800017FD0120AAAAB0A7D027FD0120AAAABE5
:100A08000B7D037FD0120AAAAB0C7D047FD0120A9B
:100A1800AAAB0D7D057FD0120AAAAB0E7D067FD04A
:030A2800020AAA15
:100800007F89120D077BFF7A0B7928120CDC7D03A0
:100810007FD0120A2B8F18E51814B40700505C9093
:10082000082D75F003A4C58325F0C5837302084223
:1008300002084A02085202085A02086202086A02C2
:1008400008727BFF7A0B792D802E7BFF7A0B793132
:1008500080267BFF7A0B7935801E7BFF7A0B7939F6
:1008600080167BFF7A0B793D800E7BFF7A0B7941F6
:1008700080067BFF7A0B7945120CDC7FC0120D07D6
:100880007BFF7A0B7949120CDC7D047FD0120A2B96
:100890008F197D057FD0120A2B8F1A7D067FD0120B
:1008A0000A2B8F1BE519C4540F2430FF120CFBE5F3
:1008B00019540F2430FF120CFB7F2F120CFBE51A8A
:1008C00075F00A842430FF120CFBE51A75F00A84D7
:1008D000E5F02430FF120CFB7F2F120CFBE51BC44C
:1008E000540F2430FF120CFBE51B540F2430FF1271
:1008F0000CFB7F80120D077D027FD0120A2B8F1711
:10090000E51775F00A842430FF120CFBE51775F02B
:100910000A84E5F02430FF120CFB7F3A120CFB7DB9
:10092000017FD0120A2B8F16E516C4540F2430FF16
:10093000120CFBE516540F2430FF120CFB7F3A1209
:100940000CFBE4FD7FD0120A2B8F15E515C4540F64
:100950002430FF120CFBE515540F2430FF020CFB72
:100C9A00BB010689828A83E0225002E722BBFE0258
:090CAA00E32289828A83E493228B
:00000001FF
